{
  "contractName": "EnergyCommunity",
  "abi": [
    {
      "constant": true,
      "inputs": [],
      "name": "initialPercentPowerUser3",
      "outputs": [
        {
          "name": "",
          "type": "uint256"
        }
      ],
      "payable": false,
      "stateMutability": "view",
      "type": "function"
    },
    {
      "constant": true,
      "inputs": [
        {
          "name": "",
          "type": "uint256"
        }
      ],
      "name": "economicTransactionDSOArray",
      "outputs": [
        {
          "name": "",
          "type": "int256"
        }
      ],
      "payable": false,
      "stateMutability": "view",
      "type": "function"
    },
    {
      "constant": true,
      "inputs": [],
      "name": "DSO",
      "outputs": [
        {
          "name": "",
          "type": "address"
        }
      ],
      "payable": false,
      "stateMutability": "view",
      "type": "function"
    },
    {
      "constant": true,
      "inputs": [],
      "name": "sellingPrice",
      "outputs": [
        {
          "name": "",
          "type": "uint256"
        }
      ],
      "payable": false,
      "stateMutability": "view",
      "type": "function"
    },
    {
      "constant": true,
      "inputs": [
        {
          "name": "",
          "type": "uint256"
        }
      ],
      "name": "marketPrices",
      "outputs": [
        {
          "name": "poolPrice",
          "type": "uint256"
        },
        {
          "name": "accessTariff",
          "type": "uint256"
        },
        {
          "name": "networkFee",
          "type": "uint256"
        }
      ],
      "payable": false,
      "stateMutability": "view",
      "type": "function"
    },
    {
      "constant": true,
      "inputs": [],
      "name": "priceOfSCPTokens",
      "outputs": [
        {
          "name": "",
          "type": "uint256"
        }
      ],
      "payable": false,
      "stateMutability": "view",
      "type": "function"
    },
    {
      "constant": true,
      "inputs": [],
      "name": "priceOfECCoins",
      "outputs": [
        {
          "name": "",
          "type": "uint256"
        }
      ],
      "payable": false,
      "stateMutability": "view",
      "type": "function"
    },
    {
      "constant": true,
      "inputs": [],
      "name": "numberOfSCPTokensRemaining",
      "outputs": [
        {
          "name": "",
          "type": "uint256"
        }
      ],
      "payable": false,
      "stateMutability": "view",
      "type": "function"
    },
    {
      "constant": true,
      "inputs": [],
      "name": "decimals",
      "outputs": [
        {
          "name": "",
          "type": "uint256"
        }
      ],
      "payable": false,
      "stateMutability": "view",
      "type": "function"
    },
    {
      "constant": true,
      "inputs": [],
      "name": "euroToWei",
      "outputs": [
        {
          "name": "",
          "type": "uint256"
        }
      ],
      "payable": false,
      "stateMutability": "view",
      "type": "function"
    },
    {
      "constant": true,
      "inputs": [
        {
          "name": "",
          "type": "uint256"
        }
      ],
      "name": "users",
      "outputs": [
        {
          "name": "addr",
          "type": "address"
        },
        {
          "name": "id",
          "type": "uint256"
        },
        {
          "name": "balanceInstantaneo",
          "type": "int256"
        },
        {
          "name": "powerPercentage",
          "type": "int256"
        }
      ],
      "payable": false,
      "stateMutability": "view",
      "type": "function"
    },
    {
      "constant": true,
      "inputs": [],
      "name": "buyingPrice",
      "outputs": [
        {
          "name": "",
          "type": "uint256"
        }
      ],
      "payable": false,
      "stateMutability": "view",
      "type": "function"
    },
    {
      "constant": true,
      "inputs": [
        {
          "name": "",
          "type": "uint256"
        }
      ],
      "name": "balanceInstantaneo1Array",
      "outputs": [
        {
          "name": "",
          "type": "int256"
        }
      ],
      "payable": false,
      "stateMutability": "view",
      "type": "function"
    },
    {
      "constant": true,
      "inputs": [],
      "name": "priceOfPowerContractedPerHour",
      "outputs": [
        {
          "name": "",
          "type": "uint256"
        }
      ],
      "payable": false,
      "stateMutability": "view",
      "type": "function"
    },
    {
      "constant": true,
      "inputs": [],
      "name": "totalDemand",
      "outputs": [
        {
          "name": "",
          "type": "uint256"
        }
      ],
      "payable": false,
      "stateMutability": "view",
      "type": "function"
    },
    {
      "constant": true,
      "inputs": [
        {
          "name": "",
          "type": "uint256"
        }
      ],
      "name": "economicTransaction2Array",
      "outputs": [
        {
          "name": "",
          "type": "int256"
        }
      ],
      "payable": false,
      "stateMutability": "view",
      "type": "function"
    },
    {
      "constant": true,
      "inputs": [],
      "name": "initialPercentPowerUser1",
      "outputs": [
        {
          "name": "",
          "type": "uint256"
        }
      ],
      "payable": false,
      "stateMutability": "view",
      "type": "function"
    },
    {
      "constant": true,
      "inputs": [],
      "name": "numberOfUsers",
      "outputs": [
        {
          "name": "",
          "type": "uint256"
        }
      ],
      "payable": false,
      "stateMutability": "view",
      "type": "function"
    },
    {
      "constant": true,
      "inputs": [],
      "name": "initialPercentPowerUser2",
      "outputs": [
        {
          "name": "",
          "type": "uint256"
        }
      ],
      "payable": false,
      "stateMutability": "view",
      "type": "function"
    },
    {
      "constant": true,
      "inputs": [
        {
          "name": "",
          "type": "uint256"
        }
      ],
      "name": "idToSmartMeter",
      "outputs": [
        {
          "name": "id",
          "type": "uint256"
        },
        {
          "name": "typeOfSmartMeter",
          "type": "bool"
        }
      ],
      "payable": false,
      "stateMutability": "view",
      "type": "function"
    },
    {
      "constant": true,
      "inputs": [],
      "name": "powerContracted",
      "outputs": [
        {
          "name": "",
          "type": "uint256"
        }
      ],
      "payable": false,
      "stateMutability": "view",
      "type": "function"
    },
    {
      "constant": true,
      "inputs": [
        {
          "name": "",
          "type": "address"
        }
      ],
      "name": "balanceEC",
      "outputs": [
        {
          "name": "",
          "type": "uint256"
        }
      ],
      "payable": false,
      "stateMutability": "view",
      "type": "function"
    },
    {
      "constant": true,
      "inputs": [],
      "name": "balanceInstantaneoDSO",
      "outputs": [
        {
          "name": "",
          "type": "int256"
        }
      ],
      "payable": false,
      "stateMutability": "view",
      "type": "function"
    },
    {
      "constant": true,
      "inputs": [
        {
          "name": "",
          "type": "uint256"
        }
      ],
      "name": "economicTransaction3Array",
      "outputs": [
        {
          "name": "",
          "type": "int256"
        }
      ],
      "payable": false,
      "stateMutability": "view",
      "type": "function"
    },
    {
      "constant": true,
      "inputs": [],
      "name": "economicTransactionDSO",
      "outputs": [
        {
          "name": "",
          "type": "int256"
        }
      ],
      "payable": false,
      "stateMutability": "view",
      "type": "function"
    },
    {
      "constant": true,
      "inputs": [
        {
          "name": "",
          "type": "uint256"
        }
      ],
      "name": "balanceInstantaneoDSOArray",
      "outputs": [
        {
          "name": "",
          "type": "int256"
        }
      ],
      "payable": false,
      "stateMutability": "view",
      "type": "function"
    },
    {
      "constant": true,
      "inputs": [],
      "name": "powerContractedOld",
      "outputs": [
        {
          "name": "",
          "type": "uint256"
        }
      ],
      "payable": false,
      "stateMutability": "view",
      "type": "function"
    },
    {
      "constant": true,
      "inputs": [],
      "name": "maxPowerInOrOut",
      "outputs": [
        {
          "name": "",
          "type": "uint256"
        }
      ],
      "payable": false,
      "stateMutability": "view",
      "type": "function"
    },
    {
      "constant": true,
      "inputs": [],
      "name": "counterHours",
      "outputs": [
        {
          "name": "",
          "type": "uint256"
        }
      ],
      "payable": false,
      "stateMutability": "view",
      "type": "function"
    },
    {
      "constant": true,
      "inputs": [],
      "name": "numberOfSCPTokens",
      "outputs": [
        {
          "name": "",
          "type": "uint256"
        }
      ],
      "payable": false,
      "stateMutability": "view",
      "type": "function"
    },
    {
      "constant": true,
      "inputs": [
        {
          "name": "",
          "type": "uint256"
        }
      ],
      "name": "userPositionToSmartMeterId",
      "outputs": [
        {
          "name": "",
          "type": "uint256"
        }
      ],
      "payable": false,
      "stateMutability": "view",
      "type": "function"
    },
    {
      "constant": true,
      "inputs": [
        {
          "name": "",
          "type": "address"
        }
      ],
      "name": "balanceSCP",
      "outputs": [
        {
          "name": "",
          "type": "uint256"
        }
      ],
      "payable": false,
      "stateMutability": "view",
      "type": "function"
    },
    {
      "constant": true,
      "inputs": [],
      "name": "numberOfSmartMeters",
      "outputs": [
        {
          "name": "",
          "type": "uint256"
        }
      ],
      "payable": false,
      "stateMutability": "view",
      "type": "function"
    },
    {
      "constant": true,
      "inputs": [
        {
          "name": "",
          "type": "address"
        },
        {
          "name": "",
          "type": "address"
        }
      ],
      "name": "allowance",
      "outputs": [
        {
          "name": "",
          "type": "uint256"
        }
      ],
      "payable": false,
      "stateMutability": "view",
      "type": "function"
    },
    {
      "constant": true,
      "inputs": [],
      "name": "economicTransaction2",
      "outputs": [
        {
          "name": "",
          "type": "int256"
        }
      ],
      "payable": false,
      "stateMutability": "view",
      "type": "function"
    },
    {
      "constant": true,
      "inputs": [
        {
          "name": "",
          "type": "uint256"
        }
      ],
      "name": "balanceInstantaneo3Array",
      "outputs": [
        {
          "name": "",
          "type": "int256"
        }
      ],
      "payable": false,
      "stateMutability": "view",
      "type": "function"
    },
    {
      "constant": true,
      "inputs": [],
      "name": "economicTransaction1",
      "outputs": [
        {
          "name": "",
          "type": "int256"
        }
      ],
      "payable": false,
      "stateMutability": "view",
      "type": "function"
    },
    {
      "constant": true,
      "inputs": [
        {
          "name": "",
          "type": "uint256"
        }
      ],
      "name": "economicTransaction1Array",
      "outputs": [
        {
          "name": "",
          "type": "int256"
        }
      ],
      "payable": false,
      "stateMutability": "view",
      "type": "function"
    },
    {
      "constant": true,
      "inputs": [],
      "name": "economicTransaction3",
      "outputs": [
        {
          "name": "",
          "type": "int256"
        }
      ],
      "payable": false,
      "stateMutability": "view",
      "type": "function"
    },
    {
      "constant": true,
      "inputs": [
        {
          "name": "",
          "type": "uint256"
        }
      ],
      "name": "balanceInstantaneo2Array",
      "outputs": [
        {
          "name": "",
          "type": "int256"
        }
      ],
      "payable": false,
      "stateMutability": "view",
      "type": "function"
    },
    {
      "inputs": [
        {
          "name": "_initialPrice",
          "type": "uint256"
        },
        {
          "name": "_initialSupply",
          "type": "uint256"
        }
      ],
      "payable": false,
      "stateMutability": "nonpayable",
      "type": "constructor"
    },
    {
      "anonymous": false,
      "inputs": [
        {
          "indexed": false,
          "name": "UserAddress",
          "type": "address"
        },
        {
          "indexed": false,
          "name": "UserId",
          "type": "uint256"
        }
      ],
      "name": "NewUserCreated",
      "type": "event"
    },
    {
      "anonymous": false,
      "inputs": [
        {
          "indexed": false,
          "name": "UserId",
          "type": "uint256"
        }
      ],
      "name": "UserRemoved",
      "type": "event"
    },
    {
      "anonymous": false,
      "inputs": [
        {
          "indexed": false,
          "name": "SMId",
          "type": "uint256"
        },
        {
          "indexed": false,
          "name": "Type",
          "type": "bool"
        }
      ],
      "name": "NewSmartMeterCreated",
      "type": "event"
    },
    {
      "anonymous": false,
      "inputs": [],
      "name": "AllSCPTokensSold",
      "type": "event"
    },
    {
      "anonymous": false,
      "inputs": [
        {
          "indexed": false,
          "name": "From",
          "type": "address"
        },
        {
          "indexed": false,
          "name": "to",
          "type": "address"
        },
        {
          "indexed": false,
          "name": "Value",
          "type": "uint256"
        }
      ],
      "name": "LiquidationDone",
      "type": "event"
    },
    {
      "anonymous": false,
      "inputs": [
        {
          "indexed": false,
          "name": "PowerPayment",
          "type": "uint256"
        },
        {
          "indexed": false,
          "name": "Percentage1",
          "type": "int256"
        },
        {
          "indexed": false,
          "name": "Percentage2",
          "type": "int256"
        },
        {
          "indexed": false,
          "name": "Percentage3",
          "type": "int256"
        }
      ],
      "name": "PowerContractedPayment",
      "type": "event"
    },
    {
      "anonymous": false,
      "inputs": [
        {
          "indexed": false,
          "name": "Comm",
          "type": "int256"
        },
        {
          "indexed": false,
          "name": "D1",
          "type": "int256"
        },
        {
          "indexed": false,
          "name": "D2",
          "type": "int256"
        },
        {
          "indexed": false,
          "name": "D3",
          "type": "int256"
        },
        {
          "indexed": false,
          "name": "PV",
          "type": "int256"
        },
        {
          "indexed": false,
          "name": "Batt",
          "type": "int256"
        }
      ],
      "name": "NewMeasurement",
      "type": "event"
    },
    {
      "anonymous": false,
      "inputs": [
        {
          "indexed": false,
          "name": "PoolPrice",
          "type": "uint256"
        },
        {
          "indexed": false,
          "name": "AccessTariff",
          "type": "uint256"
        },
        {
          "indexed": false,
          "name": "NetworkFee",
          "type": "uint256"
        }
      ],
      "name": "NewMarketPrice",
      "type": "event"
    },
    {
      "constant": false,
      "inputs": [
        {
          "name": "_id",
          "type": "uint256"
        },
        {
          "name": "_type",
          "type": "bool"
        },
        {
          "name": "idUserAttachedTo",
          "type": "uint256"
        }
      ],
      "name": "addNewSmartMeter",
      "outputs": [],
      "payable": false,
      "stateMutability": "nonpayable",
      "type": "function"
    },
    {
      "constant": false,
      "inputs": [
        {
          "name": "_addr",
          "type": "address"
        },
        {
          "name": "_id",
          "type": "uint256"
        }
      ],
      "name": "addNewUser",
      "outputs": [],
      "payable": false,
      "stateMutability": "nonpayable",
      "type": "function"
    },
    {
      "constant": false,
      "inputs": [
        {
          "name": "_powerContracted",
          "type": "uint256"
        },
        {
          "name": "_priceOfPowerContractedPerHour",
          "type": "uint256"
        }
      ],
      "name": "setContractedPower",
      "outputs": [],
      "payable": false,
      "stateMutability": "nonpayable",
      "type": "function"
    },
    {
      "constant": false,
      "inputs": [
        {
          "name": "_id",
          "type": "uint256"
        }
      ],
      "name": "removeUser",
      "outputs": [],
      "payable": false,
      "stateMutability": "nonpayable",
      "type": "function"
    },
    {
      "constant": false,
      "inputs": [
        {
          "name": "_addr",
          "type": "address"
        }
      ],
      "name": "defineDSO",
      "outputs": [],
      "payable": false,
      "stateMutability": "nonpayable",
      "type": "function"
    },
    {
      "constant": false,
      "inputs": [
        {
          "name": "_id",
          "type": "uint256"
        }
      ],
      "name": "removeSmartMeter",
      "outputs": [],
      "payable": false,
      "stateMutability": "nonpayable",
      "type": "function"
    },
    {
      "constant": false,
      "inputs": [
        {
          "name": "_newPriceOfEC",
          "type": "uint256"
        }
      ],
      "name": "setPriceOfECCoins",
      "outputs": [],
      "payable": false,
      "stateMutability": "nonpayable",
      "type": "function"
    },
    {
      "constant": false,
      "inputs": [
        {
          "name": "_numberOfCoinsToBuy",
          "type": "uint256"
        }
      ],
      "name": "buyECCcoins",
      "outputs": [],
      "payable": true,
      "stateMutability": "payable",
      "type": "function"
    },
    {
      "constant": false,
      "inputs": [
        {
          "name": "_tokensMinted",
          "type": "uint256"
        },
        {
          "name": "_pricePerToken",
          "type": "uint256"
        }
      ],
      "name": "mintSCPTokens",
      "outputs": [],
      "payable": false,
      "stateMutability": "nonpayable",
      "type": "function"
    },
    {
      "constant": false,
      "inputs": [
        {
          "name": "_numberOfTokensToBuy",
          "type": "uint256"
        }
      ],
      "name": "buySCPTokens",
      "outputs": [],
      "payable": false,
      "stateMutability": "nonpayable",
      "type": "function"
    },
    {
      "constant": false,
      "inputs": [
        {
          "name": "_tokensBurned",
          "type": "uint256"
        }
      ],
      "name": "burnSCPTokens",
      "outputs": [],
      "payable": false,
      "stateMutability": "nonpayable",
      "type": "function"
    },
    {
      "constant": false,
      "inputs": [
        {
          "name": "_coinsBurned",
          "type": "uint256"
        }
      ],
      "name": "burnECCOins",
      "outputs": [],
      "payable": false,
      "stateMutability": "nonpayable",
      "type": "function"
    },
    {
      "constant": false,
      "inputs": [
        {
          "name": "_fromWho",
          "type": "address"
        },
        {
          "name": "_numberOfTokensToBuy",
          "type": "uint256"
        }
      ],
      "name": "buySCPTokensFromOtherUser",
      "outputs": [],
      "payable": false,
      "stateMutability": "nonpayable",
      "type": "function"
    },
    {
      "constant": false,
      "inputs": [
        {
          "name": "_permissionTo",
          "type": "address"
        },
        {
          "name": "_SCPQuantity",
          "type": "uint256"
        }
      ],
      "name": "givePermission",
      "outputs": [],
      "payable": false,
      "stateMutability": "nonpayable",
      "type": "function"
    },
    {
      "constant": false,
      "inputs": [],
      "name": "withdraw",
      "outputs": [],
      "payable": false,
      "stateMutability": "nonpayable",
      "type": "function"
    },
    {
      "constant": true,
      "inputs": [],
      "name": "getMyBalanceEC",
      "outputs": [
        {
          "name": "",
          "type": "uint256"
        }
      ],
      "payable": false,
      "stateMutability": "view",
      "type": "function"
    },
    {
      "constant": true,
      "inputs": [],
      "name": "getMyBalanceSCP",
      "outputs": [
        {
          "name": "",
          "type": "uint256"
        }
      ],
      "payable": false,
      "stateMutability": "view",
      "type": "function"
    },
    {
      "constant": true,
      "inputs": [],
      "name": "getMybalanceInstantaneo",
      "outputs": [
        {
          "name": "",
          "type": "int256"
        }
      ],
      "payable": false,
      "stateMutability": "view",
      "type": "function"
    },
    {
      "constant": true,
      "inputs": [],
      "name": "getMyMeasurements",
      "outputs": [
        {
          "name": "",
          "type": "int256[]"
        }
      ],
      "payable": false,
      "stateMutability": "view",
      "type": "function"
    },
    {
      "constant": true,
      "inputs": [
        {
          "name": "_id",
          "type": "uint256"
        }
      ],
      "name": "getMeasurementsOfASmartMeter",
      "outputs": [
        {
          "name": "",
          "type": "int256[]"
        }
      ],
      "payable": false,
      "stateMutability": "view",
      "type": "function"
    },
    {
      "constant": true,
      "inputs": [
        {
          "name": "_idUser",
          "type": "uint256"
        }
      ],
      "name": "getMyInstaneousBalance",
      "outputs": [
        {
          "name": "",
          "type": "int256[]"
        }
      ],
      "payable": false,
      "stateMutability": "view",
      "type": "function"
    },
    {
      "constant": true,
      "inputs": [],
      "name": "getDSOInstataneousBalance",
      "outputs": [
        {
          "name": "",
          "type": "int256[]"
        }
      ],
      "payable": false,
      "stateMutability": "view",
      "type": "function"
    },
    {
      "constant": true,
      "inputs": [
        {
          "name": "_idUser",
          "type": "uint256"
        }
      ],
      "name": "getMyEconomicTransactions",
      "outputs": [
        {
          "name": "",
          "type": "int256[]"
        }
      ],
      "payable": false,
      "stateMutability": "view",
      "type": "function"
    },
    {
      "constant": true,
      "inputs": [],
      "name": "getDSOEconomicTransaction",
      "outputs": [
        {
          "name": "",
          "type": "int256[]"
        }
      ],
      "payable": false,
      "stateMutability": "view",
      "type": "function"
    },
    {
      "constant": false,
      "inputs": [
        {
          "name": "_comm",
          "type": "int256"
        },
        {
          "name": "_d1",
          "type": "int256"
        },
        {
          "name": "_d2",
          "type": "int256"
        },
        {
          "name": "_d3",
          "type": "int256"
        },
        {
          "name": "_pv",
          "type": "int256"
        },
        {
          "name": "_batt",
          "type": "int256"
        },
        {
          "name": "_poolPrice",
          "type": "uint256"
        },
        {
          "name": "_accessTariff",
          "type": "uint256"
        },
        {
          "name": "_networkFee",
          "type": "uint256"
        }
      ],
      "name": "newMeasurement",
      "outputs": [],
      "payable": false,
      "stateMutability": "nonpayable",
      "type": "function"
    },
    {
      "constant": false,
      "inputs": [],
      "name": "liquidationOfTransactions",
      "outputs": [],
      "payable": false,
      "stateMutability": "nonpayable",
      "type": "function"
    }
  ],
  "bytecode": "0x60606040526402540be40060085560006009556000600a556000600b556000600c55600060105566038d7ea4c68000601155600a600854602e0281151561004257fe5b04601255600854600a0260135560456014556102016015556101a160165560006018556302e180c8601955341561007857600080fd5b604051604080620048e283398101604052808051906020019091908051906020019091905050336000806101000a81548173ffffffffffffffffffffffffffffffffffffffff021916908373ffffffffffffffffffffffffffffffffffffffff1602179055506008548102600660003373ffffffffffffffffffffffffffffffffffffffff1673ffffffffffffffffffffffffffffffffffffffff1681526020019081526020016000208190555081600d8190555050506147a3806200013f6000396000f30060606040526004361061030c576000357c0100000000000000000000000000000000000000000000000000000000900463ffffffff16806305cbab301461031157806309bab719146103345780630b5520ff1461035d5780630f83f0281461039457806310fe0fcf146103e957806311dc47031461042b57806312821b5e1461044e57806314aebade1461047757806316acf709146104bc5780631f72d5ef146104e557806321c5c6e8146104fd578063225c76c31461052657806324a7268a1461056857806326b4e9341461059157806326ed7469146105b4578063295f816d146105dd578063313ce567146106095780633537388e14610632578063365b98b21461065b578063399c0425146106d35780633b429d9f146106fc5780633ccfd60b146107335780633eb4bae01461074857806349c1eb601461077f5780634cb29d1d146107a85780635281510814610812578063567fc5e91461083b5780635960fb34146108675780635b8c94e5146108df57806368549dd514610902578063726c0b571461091757806373a7d6f91461094e57806375ce46a7146109775780637ea4c1d5146109a057806383ddc899146109c957806385c65d2c14610a0b578063862423ab14610a34578063862fdafa14610a8157806387a0e05414610aaa578063897dcfda14610ae15780638f853b2b14610b0a57806390f3aaaf14610b745780639224bd4014610b97578063933219ce14610bd9578063943a0f4614610c1057806397b7fec114610c3957806399d4d20014610ca45780639d0eddf714610ccd578063b0810dde14610cf6578063b932bfc614610d60578063b9d7884d14610d89578063be86327014610db2578063d0a7193214610ddb578063d3341e3014610e12578063d64a07b114610e8a578063d9dbda8d14610ed7578063dd62ed3e14610f00578063df01bbb514610f6c578063e0441d1c14610f95578063e0d0d64514610fcc578063e325b91514610ff5578063ec4f8b1c1461102e578063f2465b6614611065578063f47c252b1461108e578063f9a8d91314611106578063fc31b22514611129575b600080fd5b341561031c57600080fd5b6103326004808035906020019091905050611160565b005b341561033f57600080fd5b6103476112a3565b6040518082815260200191505060405180910390f35b341561036857600080fd5b61037e60048080359060200190919050506112a9565b6040518082815260200191505060405180910390f35b341561039f57600080fd5b6103a76112cd565b604051808273ffffffffffffffffffffffffffffffffffffffff1673ffffffffffffffffffffffffffffffffffffffff16815260200191505060405180910390f35b34156103f457600080fd5b610429600480803573ffffffffffffffffffffffffffffffffffffffff169060200190919080359060200190919050506112f3565b005b341561043657600080fd5b61044c600480803590602001909190505061149a565b005b341561045957600080fd5b610461611620565b6040518082815260200191505060405180910390f35b341561048257600080fd5b6104986004808035906020019091905050611626565b60405180848152602001838152602001828152602001935050505060405180910390f35b34156104c757600080fd5b6104cf61165f565b6040518082815260200191505060405180910390f35b6104fb6004808035906020019091905050611665565b005b341561050857600080fd5b6105106117af565b6040518082815260200191505060405180910390f35b341561053157600080fd5b610566600480803573ffffffffffffffffffffffffffffffffffffffff1690602001909190803590602001909190505061188b565b005b341561057357600080fd5b61057b61195e565b6040518082815260200191505060405180910390f35b341561059c57600080fd5b6105b26004808035906020019091905050611964565b005b34156105bf57600080fd5b6105c7611ca3565b6040518082815260200191505060405180910390f35b34156105e857600080fd5b6106076004808035906020019091908035906020019091905050611ca9565b005b341561061457600080fd5b61061c611d16565b6040518082815260200191505060405180910390f35b341561063d57600080fd5b610645611d1c565b6040518082815260200191505060405180910390f35b341561066657600080fd5b61067c6004808035906020019091905050611d22565b604051808573ffffffffffffffffffffffffffffffffffffffff1673ffffffffffffffffffffffffffffffffffffffff16815260200184815260200183815260200182815260200194505050505060405180910390f35b34156106de57600080fd5b6106e6611d81565b6040518082815260200191505060405180910390f35b341561070757600080fd5b61071d6004808035906020019091905050611d87565b6040518082815260200191505060405180910390f35b341561073e57600080fd5b610746611dab565b005b341561075357600080fd5b61077d60048080359060200190919080351515906020019091908035906020019091905050611e80565b005b341561078a57600080fd5b61079261200f565b6040518082815260200191505060405180910390f35b34156107b357600080fd5b6107bb612015565b6040518080602001828103825283818151815260200191508051906020019060200280838360005b838110156107fe5780820151818401526020810190506107e3565b505050509050019250505060405180910390f35b341561081d57600080fd5b610825612073565b6040518082815260200191505060405180910390f35b341561084657600080fd5b6108656004808035906020019091908035906020019091905050612079565b005b341561087257600080fd5b610888600480803590602001909190505061216d565b6040518080602001828103825283818151815260200191508051906020019060200280838360005b838110156108cb5780820151818401526020810190506108b0565b505050509050019250505060405180910390f35b34156108ea57600080fd5b61090060048080359060200190919050506122d8565b005b341561090d57600080fd5b61091561238b565b005b341561092257600080fd5b6109386004808035906020019091905050612d91565b6040518082815260200191505060405180910390f35b341561095957600080fd5b610961612db5565b6040518082815260200191505060405180910390f35b341561098257600080fd5b61098a612dbb565b6040518082815260200191505060405180910390f35b34156109ab57600080fd5b6109b3612dc1565b6040518082815260200191505060405180910390f35b34156109d457600080fd5b6109ea6004808035906020019091905050612dc7565b60405180838152602001821515151581526020019250505060405180910390f35b3415610a1657600080fd5b610a1e612df8565b6040518082815260200191505060405180910390f35b3415610a3f57600080fd5b610a6b600480803573ffffffffffffffffffffffffffffffffffffffff16906020019091905050612dfe565b6040518082815260200191505060405180910390f35b3415610a8c57600080fd5b610a94612e16565b6040518082815260200191505060405180910390f35b3415610ab557600080fd5b610acb6004808035906020019091905050612e1c565b6040518082815260200191505060405180910390f35b3415610aec57600080fd5b610af4612e40565b6040518082815260200191505060405180910390f35b3415610b1557600080fd5b610b1d612e46565b6040518080602001828103825283818151815260200191508051906020019060200280838360005b83811015610b60578082015181840152602081019050610b45565b505050509050019250505060405180910390f35b3415610b7f57600080fd5b610b956004808035906020019091905050612f7f565b005b3415610ba257600080fd5b610bd7600480803573ffffffffffffffffffffffffffffffffffffffff16906020019091908035906020019091905050612fe4565b005b3415610be457600080fd5b610bfa600480803590602001909190505061328b565b6040518082815260200191505060405180910390f35b3415610c1b57600080fd5b610c236132af565b6040518082815260200191505060405180910390f35b3415610c4457600080fd5b610ca260048080359060200190919080359060200190919080359060200190919080359060200190919080359060200190919080359060200190919080359060200190919080359060200190919080359060200190919050506132f6565b005b3415610caf57600080fd5b610cb7613afa565b6040518082815260200191505060405180910390f35b3415610cd857600080fd5b610ce0613b00565b6040518082815260200191505060405180910390f35b3415610d0157600080fd5b610d09613b06565b6040518080602001828103825283818151815260200191508051906020019060200280838360005b83811015610d4c578082015181840152602081019050610d31565b505050509050019250505060405180910390f35b3415610d6b57600080fd5b610d73613b64565b6040518082815260200191505060405180910390f35b3415610d9457600080fd5b610d9c613b6a565b6040518082815260200191505060405180910390f35b3415610dbd57600080fd5b610dc5613b70565b6040518082815260200191505060405180910390f35b3415610de657600080fd5b610dfc6004808035906020019091905050613bc4565b6040518082815260200191505060405180910390f35b3415610e1d57600080fd5b610e336004808035906020019091905050613bdc565b6040518080602001828103825283818151815260200191508051906020019060200280838360005b83811015610e76578082015181840152602081019050610e5b565b505050509050019250505060405180910390f35b3415610e9557600080fd5b610ec1600480803573ffffffffffffffffffffffffffffffffffffffff16906020019091905050613f0c565b6040518082815260200191505060405180910390f35b3415610ee257600080fd5b610eea613f24565b6040518082815260200191505060405180910390f35b3415610f0b57600080fd5b610f56600480803573ffffffffffffffffffffffffffffffffffffffff1690602001909190803573ffffffffffffffffffffffffffffffffffffffff16906020019091905050613f2a565b6040518082815260200191505060405180910390f35b3415610f7757600080fd5b610f7f613f4f565b6040518082815260200191505060405180910390f35b3415610fa057600080fd5b610fb66004808035906020019091905050613f55565b6040518082815260200191505060405180910390f35b3415610fd757600080fd5b610fdf613f79565b6040518082815260200191505060405180910390f35b341561100057600080fd5b61102c600480803573ffffffffffffffffffffffffffffffffffffffff16906020019091905050613f7f565b005b341561103957600080fd5b61104f600480803590602001909190505061401e565b6040518082815260200191505060405180910390f35b341561107057600080fd5b611078614042565b6040518082815260200191505060405180910390f35b341561109957600080fd5b6110af6004808035906020019091905050614048565b6040518080602001828103825283818151815260200191508051906020019060200280838360005b838110156110f25780820151818401526020810190506110d7565b505050509050019250505060405180910390f35b341561111157600080fd5b6111276004808035906020019091905050614378565b005b341561113457600080fd5b61114a6004808035906020019091905050614448565b6040518082815260200191505060405180910390f35b6000809054906101000a900473ffffffffffffffffffffffffffffffffffffffff1673ffffffffffffffffffffffffffffffffffffffff163373ffffffffffffffffffffffffffffffffffffffff161415156111bb57600080fd5b80600560008060009054906101000a900473ffffffffffffffffffffffffffffffffffffffff1673ffffffffffffffffffffffffffffffffffffffff1673ffffffffffffffffffffffffffffffffffffffff1681526020019081526020016000206000828254039250508190555080600b60008282540392505081905550600560008060009054906101000a900473ffffffffffffffffffffffffffffffffffffffff1673ffffffffffffffffffffffffffffffffffffffff1673ffffffffffffffffffffffffffffffffffffffff16815260200190815260200160002054600c8190555050565b60165481565b6028818154811015156112b857fe5b90600052602060002090016000915090505481565b600f60009054906101000a900473ffffffffffffffffffffffffffffffffffffffff1681565b6000809054906101000a900473ffffffffffffffffffffffffffffffffffffffff1673ffffffffffffffffffffffffffffffffffffffff163373ffffffffffffffffffffffffffffffffffffffff1614151561134e57600080fd5b6002805480600101828161136291906145f8565b916000526020600020906004020160006080604051908101604052808673ffffffffffffffffffffffffffffffffffffffff168152602001858152602001600081526020016000815250909190915060008201518160000160006101000a81548173ffffffffffffffffffffffffffffffffffffffff021916908373ffffffffffffffffffffffffffffffffffffffff1602179055506020820151816001015560408201518160020155606082015181600301555050507fafd9d196d7c3fa7a2e125971001ad6286185925cefeba5025a133071819846778282604051808373ffffffffffffffffffffffffffffffffffffffff1673ffffffffffffffffffffffffffffffffffffffff1681526020018281526020019250505060405180910390a16009600081548092919060010191905055505050565b6000806000809054906101000a900473ffffffffffffffffffffffffffffffffffffffff1673ffffffffffffffffffffffffffffffffffffffff163373ffffffffffffffffffffffffffffffffffffffff161415156114f857600080fd5b6127109150600090505b60028054905081101561154c578260028281548110151561151f57fe5b906000526020600020906004020160010154141561153f5780915061154c565b8080600101915050611502565b61271082141561155b57600080fd5b60028281548110151561156a57fe5b9060005260206000209060040201600080820160006101000a81549073ffffffffffffffffffffffffffffffffffffffff021916905560018201600090556002820160009055600382016000905550506003600083815260200190815260200160002060009055600960008154809291906001900391905055507fab24b62fd8ab41107c600afaa5e4d6e14f64f253a96e231e221809b6cc7c46a6836040518082815260200191505060405180910390a1505050565b601b5481565b60018181548110151561163557fe5b90600052602060002090600302016000915090508060000154908060010154908060020154905083565b600e5481565b34600d54820214151561167757600080fd5b600660008060009054906101000a900473ffffffffffffffffffffffffffffffffffffffff1673ffffffffffffffffffffffffffffffffffffffff1673ffffffffffffffffffffffffffffffffffffffff1681526020019081526020016000205460085482021015156116e957600080fd5b6008548102600660008060009054906101000a900473ffffffffffffffffffffffffffffffffffffffff1673ffffffffffffffffffffffffffffffffffffffff1673ffffffffffffffffffffffffffffffffffffffff168152602001908152602001600020600082825403925050819055506008548102600660003373ffffffffffffffffffffffffffffffffffffffff1673ffffffffffffffffffffffffffffffffffffffff1681526020019081526020016000206000828254019250508190555050565b60008060006127109150600090505b600280549050811015611854573373ffffffffffffffffffffffffffffffffffffffff166002828154811015156117f157fe5b906000526020600020906004020160000160009054906101000a900473ffffffffffffffffffffffffffffffffffffffff1673ffffffffffffffffffffffffffffffffffffffff16141561184757809150611854565b80806001019150506117be565b61271082141561186357600080fd5b60028281548110151561187257fe5b9060005260206000209060040201600201549250505090565b600560003373ffffffffffffffffffffffffffffffffffffffff1673ffffffffffffffffffffffffffffffffffffffff1681526020019081526020016000205481111515156118d957600080fd5b80600760003373ffffffffffffffffffffffffffffffffffffffff1673ffffffffffffffffffffffffffffffffffffffff16815260200190815260200160002060008473ffffffffffffffffffffffffffffffffffffffff1673ffffffffffffffffffffffffffffffffffffffff168152602001908152602001600020819055505050565b600d5481565b80600560008060009054906101000a900473ffffffffffffffffffffffffffffffffffffffff1673ffffffffffffffffffffffffffffffffffffffff1673ffffffffffffffffffffffffffffffffffffffff16815260200190815260200160002054101515156119d357600080fd5b600e548102600660003373ffffffffffffffffffffffffffffffffffffffff1673ffffffffffffffffffffffffffffffffffffffff1681526020019081526020016000205410151515611a2557600080fd5b600e548102600660003373ffffffffffffffffffffffffffffffffffffffff1673ffffffffffffffffffffffffffffffffffffffff16815260200190815260200160002060008282540392505081905550600e548102600660008060009054906101000a900473ffffffffffffffffffffffffffffffffffffffff1673ffffffffffffffffffffffffffffffffffffffff1673ffffffffffffffffffffffffffffffffffffffff1681526020019081526020016000206000828254019250508190555080600560008060009054906101000a900473ffffffffffffffffffffffffffffffffffffffff1673ffffffffffffffffffffffffffffffffffffffff1673ffffffffffffffffffffffffffffffffffffffff1681526020019081526020016000206000828254039250508190555080600560003373ffffffffffffffffffffffffffffffffffffffff1673ffffffffffffffffffffffffffffffffffffffff16815260200190815260200160002060008282540192505081905550600560008060009054906101000a900473ffffffffffffffffffffffffffffffffffffffff1673ffffffffffffffffffffffffffffffffffffffff1673ffffffffffffffffffffffffffffffffffffffff16815260200190815260200160002054600c819055506000600560008060009054906101000a900473ffffffffffffffffffffffffffffffffffffffff1673ffffffffffffffffffffffffffffffffffffffff1673ffffffffffffffffffffffffffffffffffffffff168152602001908152602001600020541415611ca0577fecc5022c12fbbcf9057b581aa3cc48582d9ed175d084eab48920f5e8eec54c6860405160405180910390a15b50565b600c5481565b6000809054906101000a900473ffffffffffffffffffffffffffffffffffffffff1673ffffffffffffffffffffffffffffffffffffffff163373ffffffffffffffffffffffffffffffffffffffff16141515611d0457600080fd5b81601281905550806019819055505050565b60085481565b60115481565b600281815481101515611d3157fe5b90600052602060002090600402016000915090508060000160009054906101000a900473ffffffffffffffffffffffffffffffffffffffff16908060010154908060020154908060030154905084565b601a5481565b601d81815481101515611d9657fe5b90600052602060002090016000915090505481565b6000809054906101000a900473ffffffffffffffffffffffffffffffffffffffff1673ffffffffffffffffffffffffffffffffffffffff163373ffffffffffffffffffffffffffffffffffffffff16141515611e0657600080fd5b6000809054906101000a900473ffffffffffffffffffffffffffffffffffffffff1673ffffffffffffffffffffffffffffffffffffffff166108fc3073ffffffffffffffffffffffffffffffffffffffff16319081150290604051600060405180830381858888f193505050501515611e7e57600080fd5b565b6000806000809054906101000a900473ffffffffffffffffffffffffffffffffffffffff1673ffffffffffffffffffffffffffffffffffffffff163373ffffffffffffffffffffffffffffffffffffffff16141515611ede57600080fd5b60009150846004600087815260200190815260200160002060000181905550836004600087815260200190815260200160002060010160006101000a81548160ff0219169083151502179055507f4c1ed329e6e6d57f826e9b8bf06e2b05c0a22557df3f428dbf7ee178d4f30c06858560405180838152602001821515151581526020019250505060405180910390a1600a6000815480929190600101919050555060001515841515141561200857600090505b600280549050811015611ff557600281815481101515611fae57fe5b906000526020600020906004020160010154831415611fe85784600360008381526020019081526020016000208190555060019150611ff5565b8080600101915050611f92565b60001515821515141561200757600080fd5b5b5050505050565b60195481565b61201d61462a565b602080548060200260200160405190810160405280929190818152602001828054801561206957602002820191906000526020600020905b815481526020019060010190808311612055575b5050505050905090565b601c5481565b6000809054906101000a900473ffffffffffffffffffffffffffffffffffffffff1673ffffffffffffffffffffffffffffffffffffffff163373ffffffffffffffffffffffffffffffffffffffff161415156120d457600080fd5b81600560008060009054906101000a900473ffffffffffffffffffffffffffffffffffffffff1673ffffffffffffffffffffffffffffffffffffffff1673ffffffffffffffffffffffffffffffffffffffff1681526020019081526020016000206000828254019250508190555081600b6000828254019250508190555081600c6000828254019250508190555080600e819055505050565b61217561462a565b600115156004600084815260200190815260200160002060010160009054906101000a900460ff1615151415612211576004600083815260200190815260200160002060020180548060200260200160405190810160405280929190818152602001828054801561220557602002820191906000526020600020905b8154815260200190600101908083116121f1575b505050505090506122d3565b6000809054906101000a900473ffffffffffffffffffffffffffffffffffffffff1673ffffffffffffffffffffffffffffffffffffffff163373ffffffffffffffffffffffffffffffffffffffff1614156122d257600460008381526020019081526020016000206002018054806020026020016040519081016040528092919081815260200182805480156122c657602002820191906000526020600020905b8154815260200190600101908083116122b2575b505050505090506122d3565b5b919050565b6000809054906101000a900473ffffffffffffffffffffffffffffffffffffffff1673ffffffffffffffffffffffffffffffffffffffff163373ffffffffffffffffffffffffffffffffffffffff1614151561233357600080fd5b600460008281526020019081526020016000206000808201600090556001820160006101000a81549060ff0219169055600282016000612373919061463e565b5050600a600081548092919060019003919050555050565b60008060008060105413156123ef576123ea6000809054906101000a900473ffffffffffffffffffffffffffffffffffffffff16600f60009054906101000a900473ffffffffffffffffffffffffffffffffffffffff1660105461446c565b612443565b612442600f60009054906101000a900473ffffffffffffffffffffffffffffffffffffffff166000809054906101000a900473ffffffffffffffffffffffffffffffffffffffff1660105460000361446c565b5b6000601081905550600091505b6002805490508210156125da57600060028381548110151561246e57fe5b90600052602060002090600402016002015413156125175761251260028381548110151561249857fe5b906000526020600020906004020160000160009054906101000a900473ffffffffffffffffffffffffffffffffffffffff166000809054906101000a900473ffffffffffffffffffffffffffffffffffffffff166002858154811015156124fb57fe5b90600052602060002090600402016002015461446c565b6125a7565b6125a66000809054906101000a900473ffffffffffffffffffffffffffffffffffffffff1660028481548110151561254b57fe5b906000526020600020906004020160000160009054906101000a900473ffffffffffffffffffffffffffffffffffffffff1660028581548110151561258c57fe5b90600052602060002090600402016002015460000361446c565b5b60006002838154811015156125b857fe5b9060005260206000209060040201600201819055508180600101925050612450565b600d54601154601854600854601954601254028115156125f657fe5b04020281151561260257fe5b04600660008060009054906101000a900473ffffffffffffffffffffffffffffffffffffffff1673ffffffffffffffffffffffffffffffffffffffff1673ffffffffffffffffffffffffffffffffffffffff16815260200190815260200160002060008282540392505081905550600d546011546018546008546019546012540281151561268c57fe5b04020281151561269857fe5b0460066000600f60009054906101000a900473ffffffffffffffffffffffffffffffffffffffff1673ffffffffffffffffffffffffffffffffffffffff1673ffffffffffffffffffffffffffffffffffffffff168152602001908152602001600020600082825401925050819055506012546103e8600b54600560006002600081548110151561272457fe5b906000526020600020906004020160000160009054906101000a900473ffffffffffffffffffffffffffffffffffffffff1673ffffffffffffffffffffffffffffffffffffffff1673ffffffffffffffffffffffffffffffffffffffff1681526020019081526020016000205460125460135403028115156127a257fe5b046103e8601354601454028115156127b657fe5b0403028115156127c257fe5b05600260008154811015156127d357fe5b9060005260206000209060040201600301819055506012546103e8600b54600560006002600181548110151561280557fe5b906000526020600020906004020160000160009054906101000a900473ffffffffffffffffffffffffffffffffffffffff1673ffffffffffffffffffffffffffffffffffffffff1673ffffffffffffffffffffffffffffffffffffffff16815260200190815260200160002054601254601354030281151561288357fe5b046103e86013546015540281151561289757fe5b0403028115156128a357fe5b05600260018154811015156128b457fe5b9060005260206000209060040201600301819055506012546103e8600b54600560006002808154811015156128e557fe5b906000526020600020906004020160000160009054906101000a900473ffffffffffffffffffffffffffffffffffffffff1673ffffffffffffffffffffffffffffffffffffffff1673ffffffffffffffffffffffffffffffffffffffff16815260200190815260200160002054601254601354030281151561296357fe5b046103e86013546016540281151561297757fe5b04030281151561298357fe5b0560028081548110151561299357fe5b906000526020600020906004020160030181905550600090505b600280549050811015612ca35760006002828154811015156129cb57fe5b9060005260206000209060040201600301541315612b3d57600d546011546103e86002848154811015156129fb57fe5b90600052602060002090600402016003015460185460085460195460125402811515612a2357fe5b040202811515612a2f57fe5b0402811515612a3a57fe5b0492508260066000600284815481101515612a5157fe5b906000526020600020906004020160000160009054906101000a900473ffffffffffffffffffffffffffffffffffffffff1673ffffffffffffffffffffffffffffffffffffffff1673ffffffffffffffffffffffffffffffffffffffff1681526020019081526020016000206000828254039250508190555082600660008060009054906101000a900473ffffffffffffffffffffffffffffffffffffffff1673ffffffffffffffffffffffffffffffffffffffff1673ffffffffffffffffffffffffffffffffffffffff16815260200190815260200160002060008282540192505081905550612c96565b600d546011546103e8600284815481101515612b5557fe5b90600052602060002090600402016003015460000360185460085460195460125402811515612b8057fe5b040202811515612b8c57fe5b0402811515612b9757fe5b04925082600660008060009054906101000a900473ffffffffffffffffffffffffffffffffffffffff1673ffffffffffffffffffffffffffffffffffffffff1673ffffffffffffffffffffffffffffffffffffffff168152602001908152602001600020600082825403925050819055508260066000600284815481101515612c1c57fe5b906000526020600020906004020160000160009054906101000a900473ffffffffffffffffffffffffffffffffffffffff1673ffffffffffffffffffffffffffffffffffffffff1673ffffffffffffffffffffffffffffffffffffffff168152602001908152602001600020600082825401925050819055505b80806001019150506129ad565b7f92b0b176031fcf291cf965d7bccb57c267f835d2268d05fafd4ec437a31b06cc600d5460115460185460085460195460125402811515612ce057fe5b040202811515612cec57fe5b0460026000815481101515612cfd57fe5b90600052602060002090600402016003015460026001815481101515612d1f57fe5b906000526020600020906004020160030154600280815481101515612d4057fe5b9060005260206000209060040201600301546040518085815260200184815260200183815260200182815260200194505050505060405180910390a160006018819055506000601781905550505050565b602681815481101515612da057fe5b90600052602060002090016000915090505481565b60145481565b60095481565b60155481565b60046020528060005260406000206000915090508060000154908060010160009054906101000a900460ff16905082565b60125481565b60066020528060005260406000206000915090505481565b60105481565b602781815481101515612e2b57fe5b90600052602060002090016000915090505481565b60245481565b612e4e61462a565b6000806127109150600090505b600280549050811015612ef1573373ffffffffffffffffffffffffffffffffffffffff16600282815481101515612e8e57fe5b906000526020600020906004020160000160009054906101000a900473ffffffffffffffffffffffffffffffffffffffff1673ffffffffffffffffffffffffffffffffffffffff161415612ee457809150612ef1565b8080600101915050612e5b565b612710821415612f0057600080fd5b6004600060036000858152602001908152602001600020548152602001908152602001600020600201805480602002602001604051908101604052809291908181526020018280548015612f7357602002820191906000526020600020905b815481526020019060010190808311612f5f575b50505050509250505090565b6000809054906101000a900473ffffffffffffffffffffffffffffffffffffffff1673ffffffffffffffffffffffffffffffffffffffff163373ffffffffffffffffffffffffffffffffffffffff16141515612fda57600080fd5b80600d8190555050565b600760008373ffffffffffffffffffffffffffffffffffffffff1673ffffffffffffffffffffffffffffffffffffffff16815260200190815260200160002060003373ffffffffffffffffffffffffffffffffffffffff1673ffffffffffffffffffffffffffffffffffffffff16815260200190815260200160002054811115151561306f57600080fd5b600e548102600660003373ffffffffffffffffffffffffffffffffffffffff1673ffffffffffffffffffffffffffffffffffffffff16815260200190815260200160002054101515156130c157600080fd5b80600760008473ffffffffffffffffffffffffffffffffffffffff1673ffffffffffffffffffffffffffffffffffffffff16815260200190815260200160002060003373ffffffffffffffffffffffffffffffffffffffff1673ffffffffffffffffffffffffffffffffffffffff16815260200190815260200160002060008282540392505081905550600e548102600660003373ffffffffffffffffffffffffffffffffffffffff1673ffffffffffffffffffffffffffffffffffffffff16815260200190815260200160002060008282540392505081905550600e548102600660008473ffffffffffffffffffffffffffffffffffffffff1673ffffffffffffffffffffffffffffffffffffffff1681526020019081526020016000206000828254019250508190555080600560008473ffffffffffffffffffffffffffffffffffffffff1673ffffffffffffffffffffffffffffffffffffffff1681526020019081526020016000206000828254039250508190555080600560003373ffffffffffffffffffffffffffffffffffffffff1673ffffffffffffffffffffffffffffffffffffffff168152602001908152602001600020600082825401925050819055505050565b60208181548110151561329a57fe5b90600052602060002090016000915090505481565b6000600560003373ffffffffffffffffffffffffffffffffffffffff1673ffffffffffffffffffffffffffffffffffffffff16815260200190815260200160002054905090565b6000806001805480600101828161330d919061465f565b916000526020600020906003020160006060604051908101604052808981526020018881526020018781525090919091506000820151816000015560208201518160010155604082015181600201555050506004600080815260200190815260200160002060020180548060010182816133879190614691565b916000526020600020900160008d90919091505550600460006001815260200190815260200160002060020180548060010182816133c59190614691565b916000526020600020900160008c90919091505550600460006002815260200190815260200160002060020180548060010182816134039190614691565b916000526020600020900160008b90919091505550600460006003815260200190815260200160002060020180548060010182816134419190614691565b916000526020600020900160008a909190915055506004600060048152602001908152602001600020600201805480600101828161347f9190614691565b916000526020600020900160008990919091505550600460006005815260200190815260200160002060020180548060010182816134bd9190614691565b9160005260206000209001600088909190915055507fbc2b951455356fdd8dedd945b800234d2fd96606f06f844b9e2009fe14cdb9548b8b8b8b8b8b60405180878152602001868152602001858152602001848152602001838152602001828152602001965050505050505060405180910390a17fd9cffa6ba1de2ae68e53296895b1143860086ec05c66736658cd15d40ee0640d85858560405180848152602001838152602001828152602001935050505060405180910390a187898b0101601c819055508284860101601a81905550828503601b8190555060008b13156135e557600854601a548c028115156135b157fe5b0591508a601c5410156135c757600090506135e0565b600854601a548c601c5403028115156135dc57fe5b0490505b61363e565b60008b141561360d5760009150600854601a54601c540281151561360557fe5b04905061363d565b600854601b548c0281151561361e57fe5b05915081600003600854601a54601c540281151561363857fe5b040190505b5b600d54601154600b54600560006002600081548110151561365b57fe5b906000526020600020906004020160000160009054906101000a900473ffffffffffffffffffffffffffffffffffffffff1673ffffffffffffffffffffffffffffffffffffffff1673ffffffffffffffffffffffffffffffffffffffff1681526020019081526020016000205484028115156136d357fe5b04600854601a548e028115156136e557fe5b0503028115156136f157fe5b05602181905550600d54601154600b54600560006002600181548110151561371557fe5b906000526020600020906004020160000160009054906101000a900473ffffffffffffffffffffffffffffffffffffffff1673ffffffffffffffffffffffffffffffffffffffff1673ffffffffffffffffffffffffffffffffffffffff16815260200190815260200160002054840281151561378d57fe5b04600854601a548d0281151561379f57fe5b0503028115156137ab57fe5b05602281905550600d54601154600b54600560006002808154811015156137ce57fe5b906000526020600020906004020160000160009054906101000a900473ffffffffffffffffffffffffffffffffffffffff1673ffffffffffffffffffffffffffffffffffffffff1673ffffffffffffffffffffffffffffffffffffffff16815260200190815260200160002054840281151561384657fe5b04600854601a548c0281151561385857fe5b05030281151561386457fe5b05602381905550600d54601154830281151561387c57fe5b056024819055506021546002600081548110151561389657fe5b906000526020600020906004020160020160008282540192505081905550602254600260018154811015156138c757fe5b9060005260206000209060040201600201600082825401925050819055506023546002808154811015156138f757fe5b9060005260206000209060040201600201600082825401925050819055506024546010600082825401925050819055506025805480600101828161393b9190614691565b9160005260206000209001600060215490919091505550602680548060010182816139669190614691565b9160005260206000209001600060225490919091505550602780548060010182816139919190614691565b9160005260206000209001600060235490919091505550602880548060010182816139bc9190614691565b9160005260206000209001600060245490919091505550601d80548060010182816139e79190614691565b9160005260206000209001600060026000815481101515613a0457fe5b90600052602060002090600402016002015490919091505550601e8054806001018281613a319190614691565b9160005260206000209001600060026001815481101515613a4e57fe5b90600052602060002090600402016002015490919091505550601f8054806001018281613a7b9190614691565b91600052602060002090016000600280815481101515613a9757fe5b9060005260206000209060040201600201549091909150555060208054806001018281613ac49190614691565b91600052602060002090016000601054909190915055506018600081548092919060010191905055505050505050505050505050565b60135481565b60175481565b613b0e61462a565b6028805480602002602001604051908101604052809291908181526020018280548015613b5a57602002820191906000526020600020905b815481526020019060010190808311613b46575b5050505050905090565b60185481565b600b5481565b6000600854600660003373ffffffffffffffffffffffffffffffffffffffff1673ffffffffffffffffffffffffffffffffffffffff16815260200190815260200160002054811515613bbe57fe5b04905090565b60036020528060005260406000206000915090505481565b613be461462a565b3373ffffffffffffffffffffffffffffffffffffffff16600260018403815481101515613c0d57fe5b906000526020600020906004020160000160009054906101000a900473ffffffffffffffffffffffffffffffffffffffff1673ffffffffffffffffffffffffffffffffffffffff161415613d83576001821415613cbc57601d805480602002602001604051908101604052809291908181526020018280548015613cb057602002820191906000526020600020905b815481526020019060010190808311613c9c575b50505050509050613f07565b6002821415613d1d57601e805480602002602001604051908101604052809291908181526020018280548015613d1157602002820191906000526020600020905b815481526020019060010190808311613cfd575b50505050509050613f07565b6003821415613d7e57601f805480602002602001604051908101604052809291908181526020018280548015613d7257602002820191906000526020600020905b815481526020019060010190808311613d5e575b50505050509050613f07565b613f06565b6000809054906101000a900473ffffffffffffffffffffffffffffffffffffffff1673ffffffffffffffffffffffffffffffffffffffff163373ffffffffffffffffffffffffffffffffffffffff161415613f00576001821415613e3957601d805480602002602001604051908101604052809291908181526020018280548015613e2d57602002820191906000526020600020905b815481526020019060010190808311613e19575b50505050509050613f07565b6002821415613e9a57601e805480602002602001604051908101604052809291908181526020018280548015613e8e57602002820191906000526020600020905b815481526020019060010190808311613e7a575b50505050509050613f07565b6003821415613efb57601f805480602002602001604051908101604052809291908181526020018280548015613eef57602002820191906000526020600020905b815481526020019060010190808311613edb575b50505050509050613f07565b613f05565b600080fd5b5b5b919050565b60056020528060005260406000206000915090505481565b600a5481565b6007602052816000526040600020602052806000526040600020600091509150505481565b60225481565b601f81815481101515613f6457fe5b90600052602060002090016000915090505481565b60215481565b6000809054906101000a900473ffffffffffffffffffffffffffffffffffffffff1673ffffffffffffffffffffffffffffffffffffffff163373ffffffffffffffffffffffffffffffffffffffff16141515613fda57600080fd5b80600f60006101000a81548173ffffffffffffffffffffffffffffffffffffffff021916908373ffffffffffffffffffffffffffffffffffffffff16021790555050565b60258181548110151561402d57fe5b90600052602060002090016000915090505481565b60235481565b61405061462a565b3373ffffffffffffffffffffffffffffffffffffffff1660026001840381548110151561407957fe5b906000526020600020906004020160000160009054906101000a900473ffffffffffffffffffffffffffffffffffffffff1673ffffffffffffffffffffffffffffffffffffffff1614156141ef57600182141561412857602580548060200260200160405190810160405280929190818152602001828054801561411c57602002820191906000526020600020905b815481526020019060010190808311614108575b50505050509050614373565b600282141561418957602680548060200260200160405190810160405280929190818152602001828054801561417d57602002820191906000526020600020905b815481526020019060010190808311614169575b50505050509050614373565b60038214156141ea5760278054806020026020016040519081016040528092919081815260200182805480156141de57602002820191906000526020600020905b8154815260200190600101908083116141ca575b50505050509050614373565b614372565b6000809054906101000a900473ffffffffffffffffffffffffffffffffffffffff1673ffffffffffffffffffffffffffffffffffffffff163373ffffffffffffffffffffffffffffffffffffffff16141561436c5760018214156142a557602580548060200260200160405190810160405280929190818152602001828054801561429957602002820191906000526020600020905b815481526020019060010190808311614285575b50505050509050614373565b60028214156143065760268054806020026020016040519081016040528092919081815260200182805480156142fa57602002820191906000526020600020905b8154815260200190600101908083116142e6575b50505050509050614373565b600382141561436757602780548060200260200160405190810160405280929190818152602001828054801561435b57602002820191906000526020600020905b815481526020019060010190808311614347575b50505050509050614373565b614371565b600080fd5b5b5b919050565b6000809054906101000a900473ffffffffffffffffffffffffffffffffffffffff1673ffffffffffffffffffffffffffffffffffffffff163373ffffffffffffffffffffffffffffffffffffffff161415156143d357600080fd5b6008548102600660008060009054906101000a900473ffffffffffffffffffffffffffffffffffffffff1673ffffffffffffffffffffffffffffffffffffffff1673ffffffffffffffffffffffffffffffffffffffff1681526020019081526020016000206000828254039250508190555050565b601e8181548110151561445757fe5b90600052602060002090016000915090505481565b80600660008573ffffffffffffffffffffffffffffffffffffffff1673ffffffffffffffffffffffffffffffffffffffff16815260200190815260200160002054101515156144ba57600080fd5b80600660008573ffffffffffffffffffffffffffffffffffffffff1673ffffffffffffffffffffffffffffffffffffffff1681526020019081526020016000206000828254039250508190555080600660008473ffffffffffffffffffffffffffffffffffffffff1673ffffffffffffffffffffffffffffffffffffffff168152602001908152602001600020600082825401925050819055507fe99229ddb206f43357a80d61425878ba3671cb3d6236a87915762910340e8c24838383604051808473ffffffffffffffffffffffffffffffffffffffff1673ffffffffffffffffffffffffffffffffffffffff1681526020018373ffffffffffffffffffffffffffffffffffffffff1673ffffffffffffffffffffffffffffffffffffffff168152602001828152602001935050505060405180910390a1505050565b8154818355818115116146255760040281600402836000526020600020918201910161462491906146bd565b5b505050565b602060405190810160405280600081525090565b508054600082559060005260206000209081019061465c919061471b565b50565b81548183558181151161468c5760030281600302836000526020600020918201910161468b9190614740565b5b505050565b8154818355818115116146b8578183600052602060002091820191016146b7919061471b565b5b505050565b61471891905b8082111561471457600080820160006101000a81549073ffffffffffffffffffffffffffffffffffffffff0219169055600182016000905560028201600090556003820160009055506004016146c3565b5090565b90565b61473d91905b80821115614739576000816000905550600101614721565b5090565b90565b61477491905b80821115614770576000808201600090556001820160009055600282016000905550600301614746565b5090565b905600a165627a7a7230582039a6922a53da7d45fafa56c5004b3c982907d18e2cb05e593ff373c5d23017f80029",
  "source": "pragma solidity ^0.4.17;\r\n\r\n\r\n\r\n/**\r\n * This contract is run by the Owner/central bank of the energy community (can be a retailer or a cooperative). \r\n * It is prepared for the means of showing as prototype. It only works with a community of 3 users and 6 Smart Meters(community, 3 demands(users), 1 PV, 1 Battery)\r\n *\r\n */\r\ncontract EnergyCommunity {\r\n\r\n\taddress owner; // it has the function of central bank of the community. It issues SCP tokens and distributes payments\r\n\r\n\tevent NewUserCreated(address UserAddress, uint UserId);\r\n\tevent UserRemoved(uint UserId);\r\n\tevent NewSmartMeterCreated(uint SMId, bool Type);\r\n\tevent AllSCPTokensSold();\r\n\tevent LiquidationDone(address From, address to, uint Value);\r\n\tevent PowerContractedPayment(uint PowerPayment, int Percentage1, int Percentage2, int Percentage3);\r\n\t\r\n\tevent NewMeasurement(int Comm, int D1, int D2, int D3, int PV, int Batt);\r\n\tevent NewMarketPrice(uint PoolPrice, uint AccessTariff, uint NetworkFee);\r\n\r\n\t\r\n\tstruct MarketPrice{\r\n    \tuint poolPrice; // price will be in /kWh\r\n    \tuint accessTariff;\r\n    \tuint networkFee;\r\n\t}\r\n\tMarketPrice[] public marketPrices; //array containing all Market prices in time\r\n\r\n\tstruct User {\r\n\t\taddress addr;\r\n\t\tuint id;\r\n\t\tint balanceInstantaneo; // Internal balance of money that each user owes or is owed (<0 he owes; >0 he is owed)\r\n\t\tint powerPercentage; // % of power contracted \r\n\t}\r\n\r\n\tUser[] public users; //array containing users\r\n\r\n\tstruct SmartMeter{ \r\n\t\tuint id;\r\n\t\tbool typeOfSmartMeter; // true for generation & battery (self consumption technologies), false for demand. There should be one for the community ->true\r\n\t    int [] measurement; // array that holds the historic of measurements of this smart meter in Watios\r\n\t}\r\n\r\n\t\r\n\tmapping (uint => uint) public userPositionToSmartMeterId;\r\n    mapping (uint => SmartMeter) public idToSmartMeter; // \r\n\tmapping (address => uint) public balanceSCP; //Self Consumption Participation tokens balance. \r\n\tmapping (address => uint)  public balanceEC; //Energy Community coins balance. (utility token)\r\n\tmapping (address => mapping (address => uint)) public allowance;\r\n\t\r\n    uint public decimals = 10**10; // in solidity we cannot use float numbers. We will multiply by a big number and return it to float in the javascript(frontend)\r\n\tuint public numberOfUsers = 0;\r\n\tuint public numberOfSmartMeters  =0;\r\n\tuint public numberOfSCPTokens = 0;\r\n\tuint public numberOfSCPTokensRemaining = 0; //that have not been bought yet from the Owner/central bank\r\n\tuint public priceOfECCoins;\r\n\tuint public priceOfSCPTokens; //En ECCOins\r\n\taddress public DSO; // Address of the Distribution System Operator that sells and buys energy from the community. To be filled in in the web app\r\n\tint public balanceInstantaneoDSO = 0; // internal balance of the DSO\r\n\tuint public euroToWei = 10**15; // I consider that 1 ether is equal to 1000. 1 ether= 10^18 wei\r\n\t\r\n\tuint public powerContracted = (46*decimals/10); //in kW*10^10. initial value\r\n\tuint public powerContractedOld = 10*decimals;\r\n\tuint public initialPercentPowerUser1 = 69; //over 1000 to create one decimal afterwards\r\n\tuint public initialPercentPowerUser2 = 513;\r\n\tuint public initialPercentPowerUser3 = 417;\r\n\r\n\tuint public maxPowerInOrOut; //to account for the maximum power going through the smartmeter of the community\r\n\tuint public counterHours = 0;\r\n\tuint public priceOfPowerContractedPerHour = 48333000; // in ^10/kWh. Initial value\r\n\tuint  public buyingPrice;\r\n\tuint public sellingPrice;\r\n\tuint public totalDemand;\r\n\tint [] public balanceInstantaneo1Array;\r\n\tint [] public balanceInstantaneo2Array;\r\n\tint [] public balanceInstantaneo3Array;\r\n\tint [] public balanceInstantaneoDSOArray;\r\n\tint public economicTransaction1;\r\n\tint public economicTransaction2;\r\n\tint public economicTransaction3;\r\n\tint public economicTransactionDSO;\r\n\tint [] public economicTransaction1Array;\r\n\tint [] public economicTransaction2Array;\r\n\tint [] public economicTransaction3Array;\r\n\tint [] public economicTransactionDSOArray;\r\n\r\n\r\n\r\n\r\n\r\n\r\n    //CONSTRUCTOR   \r\n\tfunction EnergyCommunity (uint _initialPrice, uint _initialSupply) public{\r\n\t\towner = msg.sender;\r\n\t\tbalanceEC[msg.sender] = _initialSupply *decimals; // EC*10e10\r\n\t\tpriceOfECCoins = _initialPrice; //in wei\r\n\t\r\n\t}\t\r\n\r\n\r\n\r\n\tmodifier onlyOwner() {\r\n\t    require(msg.sender == owner);\r\n\t    _;\r\n\t}\r\n\r\n/**\r\n*****************FROM HERE ON FUNCTIONS TO SET UP THE COMMUNITY ************************ \r\n*/\r\n// First insert user, then its smartmeter\r\n\tfunction addNewSmartMeter(uint _id, bool _type, uint idUserAttachedTo) public onlyOwner{ // First insert the community SM, then the user ones and then generation/battery. If _type is true we dont care about idUserAttachedTo\r\n\t    bool aux = false;\t    \r\n\t    \r\n\t\tidToSmartMeter[_id].id = _id;\r\n\t\tidToSmartMeter[_id].typeOfSmartMeter = _type;\r\n\t\tNewSmartMeterCreated(_id, _type);\r\n\t\tnumberOfSmartMeters ++;\r\n\t\t\r\n\t\tif(_type == false){ // if we are inserting a user smart meter \r\n    \t\tfor(uint i=0; i<users.length; i++){\r\n    \t\t    if(idUserAttachedTo == users[i].id){\r\n    \t\t        userPositionToSmartMeterId[i] = _id; // we link the user to its smart meter\r\n    \t\t        aux = true;\r\n    \t\t        break;\r\n    \t\t    }\r\n    \t\t}\r\n    \t\tif (aux == false) revert(); //If it is not found the smart meter cannot be added. First add the user and then its smartmeter.\r\n\t\t}\r\n\t}\r\n\r\n\tfunction addNewUser(address _addr, uint _id) public onlyOwner{\r\n\t\tusers.push(User(_addr,_id,0,0));\r\n\t\tNewUserCreated(_addr,_id);\r\n\r\n\t\tnumberOfUsers ++;\r\n\t}\r\n\r\n\tfunction setContractedPower(uint _powerContracted, uint _priceOfPowerContractedPerHour) public onlyOwner{\r\n\t\tpowerContracted = _powerContracted; // in kW *decimals\r\n\t\tpriceOfPowerContractedPerHour = _priceOfPowerContractedPerHour; // in *decimals\r\n\t}\r\n\r\n\tfunction removeUser (uint _id) public onlyOwner{\r\n\t\tuint index=10000; //random big number\r\n\t\t\r\n\t\tfor(uint i=0; i < users.length; i++){\r\n\t\t\tif(users[i].id == _id){\r\n\t\t\t\tindex = i;\r\n\t\t\t\tbreak;\r\n\t\t\t}\r\n\t\t}\r\n\t\tif (index == 10000){ // if id introduce was not found, exit\r\n\t\t    revert();\r\n\t\t}\r\n\t\r\n        delete users[index];\r\n        delete userPositionToSmartMeterId[index];\r\n        numberOfUsers--;\r\n        UserRemoved(_id);\r\n\t}\r\n    \r\n    function defineDSO(address _addr) public onlyOwner{\r\n    \tDSO = _addr;\r\n    }\r\n\r\n    function removeSmartMeter (uint _id) public onlyOwner{\r\n        delete idToSmartMeter[_id];\r\n        numberOfSmartMeters --;\r\n    }\r\n\r\n/**\r\n*****************FROM HERE ON FUNCTIONS RELATED TO TOKENS OF THE COMMUNITY************************ \r\n*/\r\n\r\n\tfunction setPriceOfECCoins(uint _newPriceOfEC) public onlyOwner{\r\n\t\tpriceOfECCoins = _newPriceOfEC; //price of EC in wei (1 ether is 1000) 10e15\r\n\r\n\t}\r\n\r\n\r\n\tfunction buyECCcoins (uint _numberOfCoinsToBuy) public payable{\r\n\t\trequire(_numberOfCoinsToBuy * priceOfECCoins == msg.value); // money payed to the contract is correct\r\n\t\trequire((_numberOfCoinsToBuy*decimals) < balanceEC[owner]); // Still enough tokens to sell\r\n\r\n\t\tbalanceEC[owner] -= _numberOfCoinsToBuy*decimals;\r\n\t\tbalanceEC[msg.sender] += _numberOfCoinsToBuy*decimals;\r\n\t}\r\n\r\n\r\n\r\n\tfunction mintSCPTokens (uint _tokensMinted, uint _pricePerToken) public onlyOwner{\r\n\t\tbalanceSCP[owner] += _tokensMinted;\r\n\t\tnumberOfSCPTokens += _tokensMinted;\r\n\t\tnumberOfSCPTokensRemaining += _tokensMinted;\r\n\t\tpriceOfSCPTokens = _pricePerToken; //in EC*10e10\r\n\t}\r\n\r\n\tfunction buySCPTokens (uint _numberOfTokensToBuy) public{ //SCP tokens are bought with EC coins\r\n\t\trequire(balanceSCP[owner]>=_numberOfTokensToBuy); // Still enough tokens to sell\r\n\t\trequire(balanceEC[msg.sender] >= _numberOfTokensToBuy * priceOfSCPTokens); // enough EC coins in his account\r\n\r\n\t\tbalanceEC[msg.sender] -= _numberOfTokensToBuy * priceOfSCPTokens;\r\n\t\tbalanceEC[owner] += _numberOfTokensToBuy * priceOfSCPTokens;\r\n\t\tbalanceSCP[owner] -= _numberOfTokensToBuy;\r\n\t\tbalanceSCP[msg.sender] += _numberOfTokensToBuy;\r\n\t\tnumberOfSCPTokensRemaining = balanceSCP[owner];\r\n\t\tif(balanceSCP[owner] == 0){\r\n\t\t\tAllSCPTokensSold();\r\n\t\t}\r\n\t}\r\n\t\r\n    function burnSCPTokens (uint _tokensBurned) public onlyOwner{\r\n        balanceSCP[owner] -= _tokensBurned;\r\n        numberOfSCPTokens -= _tokensBurned;\r\n        numberOfSCPTokensRemaining = balanceSCP[owner];\r\n    }\r\n\r\n    function burnECCOins (uint _coinsBurned) public onlyOwner{\r\n        balanceEC[owner] -=_coinsBurned*decimals;\r\n        \r\n    }\r\n\r\n\tfunction buySCPTokensFromOtherUser(address _fromWho, uint _numberOfTokensToBuy) public{\r\n\t\trequire(_numberOfTokensToBuy <= allowance[_fromWho][msg.sender]); // less than what the other user allowed\r\n\t\trequire(balanceEC[msg.sender] >= _numberOfTokensToBuy * priceOfSCPTokens); // enough EC coins in the buyer's account\r\n\r\n        allowance[_fromWho][msg.sender] -= _numberOfTokensToBuy;\r\n\t\tbalanceEC[msg.sender] -= _numberOfTokensToBuy * priceOfSCPTokens;\r\n\t\tbalanceEC[_fromWho] += _numberOfTokensToBuy * priceOfSCPTokens;\r\n\t\tbalanceSCP[_fromWho] -= _numberOfTokensToBuy;\r\n\t\tbalanceSCP[msg.sender] += _numberOfTokensToBuy;\r\n\t\t\r\n\t}\r\n\r\n\tfunction givePermission(address _permissionTo, uint _SCPQuantity) public{\r\n\t\trequire(_SCPQuantity <= balanceSCP[msg.sender]);\r\n\t\tallowance[msg.sender][_permissionTo] = _SCPQuantity;\r\n\t}\r\n\t\r\n\tfunction withdraw() external onlyOwner {\r\n\t    owner.transfer(this.balance); //withdraw money from the smart contract that will contain ethers that users used to pay for EC\r\n\t}\r\n\r\n\r\n\t\t/**\r\n\t********************************FROM HERE ON GETTER FUNCTIONS**********************\r\n\t*/\r\n\tfunction getMyBalanceEC() public view returns(uint){\r\n\t\treturn balanceEC[msg.sender]/decimals;\r\n\t}\r\n\r\n\tfunction getMyBalanceSCP() public view returns(uint){\r\n\t\treturn balanceSCP[msg.sender];\r\n\t}\r\n\tfunction getMybalanceInstantaneo() public view returns (int){\r\n\t\tuint pos = 10000;\r\n        for(uint i=0; i< users.length; i++){\r\n            if(users[i].addr == msg.sender){\r\n                pos = i;\r\n                break;\r\n            }\r\n        }\r\n        if (pos == 10000){\r\n            revert();\r\n        }\r\n        return users[pos].balanceInstantaneo;\r\n\t}\r\n    function getMyMeasurements() public view returns(int[]){\r\n        uint pos = 10000;\r\n        for(uint i=0; i< users.length; i++){\r\n            if(users[i].addr == msg.sender){\r\n                pos = i;\r\n                break;\r\n            }\r\n        }\r\n        if (pos == 10000){\r\n            revert();\r\n        }\r\n        return idToSmartMeter[userPositionToSmartMeterId[pos]].measurement;\r\n    }\r\n\r\n    function getMeasurementsOfASmartMeter (uint _id) public view returns (int[]){ \r\n        if(idToSmartMeter[_id].typeOfSmartMeter == true){ //Any user can see measurments coming from PV, Battery and the community SM\r\n            return idToSmartMeter[_id].measurement;\r\n        }\r\n        if (msg.sender == owner){\r\n            return idToSmartMeter[_id].measurement; // the owner can access the measurements of anyone\r\n        }\r\n    }\r\n\r\n    function getMyInstaneousBalance(uint _idUser) public view returns(int[]){\r\n        if (users[_idUser-1].addr == msg.sender){\r\n        \tif(_idUser == 1){\r\n        \t\treturn balanceInstantaneo1Array;\r\n        \t}else if(_idUser == 2){\r\n        \t    return balanceInstantaneo2Array;\r\n        \t}else if(_idUser == 3){\r\n        \t\treturn balanceInstantaneo3Array;\r\n        \t}\r\n    \t}else if (msg.sender == owner){\r\n            if(_idUser == 1){\r\n        \t\treturn balanceInstantaneo1Array;\r\n        \t}else if(_idUser == 2){\r\n        \t    return balanceInstantaneo2Array;\r\n        \t}else if(_idUser == 3){\r\n        \t\treturn balanceInstantaneo3Array;\r\n        \t}\r\n        }else{\r\n        \trevert();\r\n        }\r\n    }\r\n    \r\n    function getDSOInstataneousBalance() public view returns(int[]){\r\n    \treturn balanceInstantaneoDSOArray;\r\n    }\r\n\r\n    function getMyEconomicTransactions(uint _idUser) public view returns(int[]){\r\n        if (users[_idUser-1].addr == msg.sender){\r\n        \tif(_idUser == 1){\r\n        \t\treturn economicTransaction1Array;\r\n        \t}else if(_idUser == 2){\r\n        \t    return economicTransaction2Array;\r\n        \t}else if(_idUser == 3){\r\n        \t\treturn economicTransaction3Array;\r\n        \t}\r\n    \t}else if (msg.sender == owner){\r\n            if(_idUser == 1){\r\n        \t\treturn economicTransaction1Array;\r\n        \t}else if(_idUser == 2){\r\n        \t    return economicTransaction2Array;\r\n        \t}else if(_idUser == 3){\r\n        \t\treturn economicTransaction3Array;\r\n        \t}\r\n        }else{\r\n        \trevert();\r\n        }\r\n    }\r\n    \r\n    function getDSOEconomicTransaction() public view returns(int[]){\r\n    \treturn economicTransactionDSOArray;\r\n    }\r\n\r\n\r\n\r\n/**\r\n********************************** From here on, measurement registration functions  ****************************************************\r\n*/\r\n\r\n    function abs(int _value) pure internal returns (int){\r\n        if(_value >=0){\r\n            return _value;\r\n        }else{\r\n            return -_value;\r\n        }\r\n    }\r\n\r\n    // all energy measurement are entering in kW*decimals\r\n\tfunction newMeasurement(int _comm, int _d1, int _d2, int _d3, int _pv, int _batt, uint _poolPrice, uint _accessTariff, uint _networkFee) public {\r\n\t    \r\n\t\t\r\n\t\t\r\n\t\tint  moneyOutOrIn; // positive -> money out; negative -> money in \r\n\t\tuint communitySavings;\r\n\r\n\t\t//register measurements and prices\r\n        marketPrices.push(MarketPrice(_poolPrice, _accessTariff, _networkFee));\r\n    \tidToSmartMeter[0].measurement.push(_comm); //positive -> energy entering; negative -> energy exiting\r\n\t\tidToSmartMeter[1].measurement.push(_d1);\r\n\t\tidToSmartMeter[2].measurement.push(_d2);\r\n\t\tidToSmartMeter[3].measurement.push(_d3);\r\n\t\tidToSmartMeter[4].measurement.push(_pv);\r\n\t\tidToSmartMeter[5].measurement.push(_batt); //positve -> discharging; negative -> charging\r\n\r\n\t\tNewMeasurement( _comm, _d1, _d2, _d3, _pv, _batt);\r\n\t\tNewMarketPrice(_poolPrice, _accessTariff, _networkFee);\r\n\r\n\t\t//Calculations of financials derived from measurements and prices\r\n        totalDemand = uint(_d1 + _d2 + _d3);\r\n\t\tbuyingPrice = (_poolPrice + _accessTariff + _networkFee); // en *10^10/kW\r\n\t\tsellingPrice = (_poolPrice - _networkFee);\r\n\t\r\n\r\n\t\tif(_comm > 0){ //energy entering the comm\r\n\t\t\tmoneyOutOrIn = (_comm * int(buyingPrice))/int(decimals); //We erase one of the decimals(10^10) since we are multiplying 2 quantities that have decimals\r\n\t\t\tif(totalDemand < uint(_comm)){\r\n\t\t\t\tcommunitySavings = 0;\r\n\t\t\t}else{ // there is being some generation inside the community\r\n\t\t\t\tcommunitySavings = (totalDemand - uint(_comm)) * buyingPrice/decimals;\r\n\t\t\t}\r\n\t\t}else if(_comm == 0){ \r\n\t\t\tmoneyOutOrIn = 0;\r\n\t\t\tcommunitySavings = (totalDemand * buyingPrice)/decimals;\r\n\r\n\t\t}else{//energy exiting\r\n\t\t\tmoneyOutOrIn = (_comm * int(sellingPrice))/int(decimals);\r\n\t\t\tcommunitySavings = (totalDemand * buyingPrice)/decimals + uint(-moneyOutOrIn); //minus before moneyOutOrIn to have a positive number\r\n\t\t\r\n\t\t}\r\n\t\t\r\n\t\t//Update internal balances of all users and DSO in EC\r\n\t\teconomicTransaction1 = (_d1 * int(buyingPrice)/int(decimals)- int(communitySavings * balanceSCP[users[0].addr]/numberOfSCPTokens))*int(euroToWei)/int(priceOfECCoins); // save in EC *10^10\r\n\t\teconomicTransaction2 = (_d2 * int(buyingPrice)/int(decimals)- int(communitySavings * balanceSCP[users[1].addr]/numberOfSCPTokens))*int(euroToWei)/int(priceOfECCoins);\r\n\t\teconomicTransaction3 = (_d3 * int(buyingPrice)/int(decimals)- int(communitySavings * balanceSCP[users[2].addr]/numberOfSCPTokens))*int(euroToWei)/int(priceOfECCoins);\r\n\t\teconomicTransactionDSO = moneyOutOrIn*int(euroToWei)/int(priceOfECCoins);\r\n\t\tusers[0].balanceInstantaneo += economicTransaction1;\r\n\t\tusers[1].balanceInstantaneo += economicTransaction2;\r\n\t\tusers[2].balanceInstantaneo += economicTransaction3;\r\n\t\tbalanceInstantaneoDSO += economicTransactionDSO;\r\n\t\t// update to arrays for storage and post plotting\r\n\t\teconomicTransaction1Array.push(economicTransaction1);\r\n\t\teconomicTransaction2Array.push(economicTransaction2);\r\n\t\teconomicTransaction3Array.push(economicTransaction3);\r\n\t\teconomicTransactionDSOArray.push(economicTransactionDSO);\r\n\t\tbalanceInstantaneo1Array.push(users[0].balanceInstantaneo);\r\n\t\tbalanceInstantaneo2Array.push(users[1].balanceInstantaneo);\r\n\t\tbalanceInstantaneo3Array.push(users[2].balanceInstantaneo);\r\n\t\tbalanceInstantaneoDSOArray.push(balanceInstantaneoDSO);\r\n\r\n\t\t//add one to the number of hours for after liquidation of contracted powrers\r\n\t    counterHours ++;\r\n\t}\r\n\r\n\r\n\r\n/**\r\n**************************************LIQUIDATIONS*****************************************\r\n*/\r\n\r\n\r\n\tfunction transactionECCOins (address _from, address _to, uint _value) internal{\r\n\t\trequire(balanceEC[_from] >= (_value));\r\n\t\tbalanceEC[_from] -= _value;\r\n\t\tbalanceEC[_to] += _value;\r\n\t\tLiquidationDone(_from, _to, _value);\r\n\t}\r\n\r\n\tfunction liquidationOfTransactions () public {\r\n\t    uint powerContractedFee;\r\n\t\tif(balanceInstantaneoDSO>0){\r\n\t\t\t\r\n\t\t\ttransactionECCOins(owner,DSO, uint(balanceInstantaneoDSO)); //We pass value in EC*decimals\r\n\t\t}else{\r\n\t\t\t\r\n\t\t\ttransactionECCOins(DSO,owner, uint(-balanceInstantaneoDSO));\r\n\t\t}\r\n\t\tbalanceInstantaneoDSO = 0; //Reinitialize the count for balanceinsnataneo\r\n\t\tfor(uint i=0; i<users.length; i++){\r\n\t\t    \r\n\t        if(users[i].balanceInstantaneo>0){\r\n\t\t\t    transactionECCOins(users[i].addr,owner, uint(users[i].balanceInstantaneo));\r\n\t\t\t}else{\r\n\t\t\t\ttransactionECCOins(owner,users[i].addr, uint(-users[i].balanceInstantaneo));\r\n\t\t\t}\r\n\t\t\tusers[i].balanceInstantaneo = 0; //Reinitialize count for user internal balance\r\n\t\t}\r\n\r\n\t\t//Power payment from owner/central bank to DSO for the contracted power of the community\r\n\t    balanceEC[owner] -= powerContracted*priceOfPowerContractedPerHour/decimals *counterHours* euroToWei/priceOfECCoins;\r\n\t    balanceEC[DSO] += powerContracted*priceOfPowerContractedPerHour/decimals *counterHours* euroToWei/priceOfECCoins;\r\n\t    \r\n\t    //each user pays depending on their contribution percentage to the Owner:\r\n\t    users[0].powerPercentage = (int(initialPercentPowerUser1*powerContractedOld/1000)-int((powerContractedOld - powerContracted)*balanceSCP[users[0].addr]/numberOfSCPTokens))*1000/int(powerContracted);\r\n\t    users[1].powerPercentage = (int(initialPercentPowerUser2*powerContractedOld/1000)-int((powerContractedOld - powerContracted)*balanceSCP[users[1].addr]/numberOfSCPTokens))*1000/int(powerContracted);\r\n\t    users[2].powerPercentage = (int(initialPercentPowerUser3*powerContractedOld/1000)-int((powerContractedOld - powerContracted)*balanceSCP[users[2].addr]/numberOfSCPTokens))*1000/int(powerContracted);\r\n\t    \r\n\t    for(uint j=0; j<users.length; j++){\r\n\t\t    if(users[j].powerPercentage > 0){//if they pay\r\n\t\t        powerContractedFee = powerContracted*priceOfPowerContractedPerHour/decimals *counterHours* uint(users[j].powerPercentage)/1000 * euroToWei/priceOfECCoins;\r\n\t\t        balanceEC[users[j].addr] -= powerContractedFee;\r\n\t\t        balanceEC[owner] += powerContractedFee;\r\n\t\t    }else{ // if negative they get an incentive for it\r\n\t\t        powerContractedFee = powerContracted*priceOfPowerContractedPerHour/decimals *counterHours* uint(-users[j].powerPercentage)/1000 * euroToWei/priceOfECCoins;\r\n\t\t\t    balanceEC[owner] -= powerContractedFee;\r\n\t\t\t    balanceEC[users[j].addr] += powerContractedFee;\r\n\t\t    }\r\n\t\t}\r\n\t\t\r\n\t\tPowerContractedPayment(powerContracted*priceOfPowerContractedPerHour/decimals *counterHours* euroToWei/priceOfECCoins, users[0].powerPercentage, users[1].powerPercentage, users[2].powerPercentage);\r\n\t\tcounterHours = 0; //initialize counter of hours for max power measurements\r\n\t\tmaxPowerInOrOut =0;\r\n\t\t\r\n\t}\r\n}\r\n",
  "sourcePath": "C:\\Users\\E\\Documents\\TFM\\solidity smart contracts\\community-dapp\\contracts\\energyCommunity.sol",
  "compiler": {
    "name": "solc",
    "version": "0.4.19+commit.c4cbbb05.Emscripten.clang"
  },
  "schemaVersion": "2.0.0",
  "updatedAt": "2018-07-01T18:50:44.071Z"
}